:100000000C946B000C9488000C9488000C9488006D
:100010000C9488000C9488000C9488000C94880040
:100020000C9488000C9488000C94EE020C948800C8
:100030000C9488000C9488000C9488000C94880020
:100040000C94F9030C9488000C9488000C9488009C
:100050000C94880008000000BE922449123EABAA0E
:10006000AA2ABECDCCCC4C3E00000080BEABAAAAD2
:10007000AA3E00000000BF000000803F000000001A
:1000800000084178D3BB4387D1133D190E3CC3BD53
:100090004282AD2B3E68EC8276BED98FE1A93E4C00
:1000A00080EFFFBE01C4FF7F3F0000000000076338
:1000B0004236B79BD8A71A39685618AEBAAB558CDA
:1000C0001D3CB7CC5763BD6DEDFD753EF617723123
:1000D000BF000000803F11241FBECFE5D8E0DEBF87
:1000E000CDBF10E0A0E6B0E0E8E0F4E102C005908A
:1000F0000D92A836B107D9F714E0A8E6B0E001C028
:100100001D92AC38B107E1F70E9424050C943D061E
:100110000C9400009695879596958795A0E0B0E0A1
:10012000BC01CD010E94420720E030E040E051E4F4
:100130000E943F080E941607CB010197F1F708952E
:10014000DF93CF9300D0CDB7DEB707C088EE93E042
:100150000E948A0089819A8101979A838983898183
:100160009A81892B99F70F900F90CF91DF91089585
:10017000A79AA69AA59AA49AAA98A998A898A29A82
:10018000A19AA09A08951F93182FAA9882E090E050
:100190000E94A000A89A85B3912F907F8F70982B12
:1001A00095BBA89882E090E00E94A000A89A85B331
:1001B0001295107F8F70812B85BBA89882E090E00C
:1001C0000E94A000AA9A82E090E00E94A0001F91E5
:1001D000089584E690E00E94A0000E94B80083E3A6
:1001E0000E94C30082E30E94C30088E20E94C30011
:1001F0008CE00E94C30086E00E94C30081E00E9460
:10020000C30082E00E94C30008951F93182FA89A8C
:1002100085B3912F907F8F70982B95BBA89882E023
:1002200090E00E94A000A89A85B31295107F8F706D
:10023000812B85BBA89882E090E00E94A0001F91CE
:100240000895623031F0633031F0613029F4805C20
:1002500003C08C5E01C08C5A80680E94C300089560
:1002600081E00E94C300089582E00E94C3000895C7
:100270000E9405010895CF93DF93EC0103C00E9413
:100280000501219688818823D1F7DF91CF910895C8
:100290001F93282F982F92959F70892F805D8A3306
:1002A00008F0895F922F9F70192F105D1A3308F0A4
:1002B000195F0E940501812F0E9405011F91089579
:1002C000FF920F931F93F82E64E60E94C209182F25
:1002D000882311F421E004C0805D0E94050120E024
:1002E0008CE99FEF189F002D11240F0D802F6AE0DD
:1002F0000E94C209182F882311F4222321F4812F90
:10030000805D0E940501005D86EF9FEF189F802DA4
:100310001124800F0E9405011F910F91FF900895F5
:100320000F931F93182F87FF10C080E690E00E9464
:100330003B01812F6CE90E94CE09282F8CE928020D
:10034000C0011124082F011B0AC064E60E94CE09D7
:10035000282F8CE92802C0011124012F080F213019
:1003600011F021E004C081E30E94050120E0802F0C
:100370006AE00E94CE09182F181614F0222321F4E7
:10038000812F805D0E940501005D86EF1802C0018B
:100390001124800F0E9405011F910F9108950F9362
:1003A0001F93CF93DF938C0160E177E20E94DB091A
:1003B000EB016115710511F421E006C09B01205D80
:1003C000822F0E94050120E080E197E2AC01C49FEA
:1003D000C001C59F900DD49F900D1124081B190BCF
:1003E000C80168EE73E00E94DB09EB01611571053D
:1003F00021F4222311F021E006C09E01205D822F0E
:100400000E94050120E088EE93E0AC01C49FC0018A
:10041000C59F900DD49F900D1124081B190BC80186
:1004200064E670E00E94DB09EB016115710521F4BF
:10043000222311F021E006C09E01205D822F0E9440
:10044000050120E084E690E0AC01C49FC001C59F97
:10045000900DD49F900D1124081B190BC8016AE060
:1004600070E00E94DB09EB016115710511F4222394
:1004700029F49E01205D822F0E940501CE0143E0F8
:10048000880F991F4A95E1F7CC0FDD1F8C0F9D1F38
:10049000081B190B802F805D0E940501DF91CF9111
:1004A0001F910F910895EF92FF920F931F93CF9397
:1004B000DF93EC0197FF16C080E690E00E943B01BD
:1004C000CE0160EF78ED0E94EF099B0180EF98ED7F
:1004D000689F8001699F100D789F100D11240C1BDF
:1004E0001D0B10C060E177E20E94EF099B0180EFD5
:1004F00098ED689F8001699F100D789F100D112461
:100500000C0F1D1F2115310511F421E005C0822FAC
:10051000805D0E94050120E0C80168EE73E00E9442
:10052000EF09EB011616170624F0222311F021E043
:1005300006C09E01205D822F0E94050120E088E117
:100540009CEFC89F7001C99FF00CD89FF00C11243C
:10055000E00EF11EC70164E670E00E94EF09EB01B6
:100560001616170624F0222311F021E006C09E0182
:10057000205D822F0E94050120E08CE99FEFC89F3B
:100580008001C99F100DD89F100D11240E0D1F1D45
:10059000C8016AE070E00E94EF09EB011616170629
:1005A00014F0222329F49E01205D822F0E94050170
:1005B00086EF9FEF9C01C29FC001C39F900DD29F09
:1005C000900D1124800F911F805D0E940501DF9125
:1005D000CF911F910F91FF90EF9008951F920F926E
:1005E0000FB60F9211248F93369A12BE88B782608D
:1005F00088BF8F910F900FBE0F901F90189583E1C9
:1006000083BF89B7826089BF82E58CBF089517B820
:1006100016B887B1886587B986B18E6886B908959E
:1006200080E487B987B18F6087B9089580E487B97E
:1006300087B18D6087B9089580E487B987B18B61F0
:1006400087B9089580916600883C41F480918404C4
:10065000909185048F5D9140F4F008C0813041F4A1
:100660008091840490918504C297ACF48AE00AC01A
:100670008A3089F4809184049091850489319105B0
:1006800024F488EC809366000895805E91401CF00D
:1006900081E0809366000895E0E0F1E080E090E082
:1006A00020813181821793070CF4C901329621E031
:1006B000E439F207A9F790938504809384040895A0
:1006C000AF92BF92CF92DF92EF92FF920F931F9360
:1006D000B090660048ECB41629F480E487B987B17D
:1006E0008F600FC08AE0B81629F480E487B987B11B
:1006F0008D6007C0E1E0BE1629F480E487B987B1B8
:100700008B6187B9379A369A3699FECFA0906900E7
:100710008A2D90E024B135B1880F991FFC01E0507B
:10072000FF4F318320833798880F991F42E0213093
:100730003407C4F066277727621B730B73707183CD
:100740006083E8E5CE2EE3E0DE2EC80ED91E8827B2
:1007500077FD8095982F0E94440723E333E343E518
:1007600050EC11C058E5C52E53E0D52EC80ED91E49
:10077000B901882777FD8095982F0E94440723E3CD
:1007800033E343E550E40E943F087B018C017B2D5D
:10079000770F60E0882777FD8095982F0E944407A7
:1007A0009B01AC01C801B7010E94A90620E030E01E
:1007B00040E250E40E944106F60160837183828327
:1007C0009383F9E4FA1520F0A394A092690006C07F
:1007D000109269000E944C030E9422030E940703AA
:1007E0001F910F91FF90EF90DF90CF90BF90AF904F
:1007F00008951F920F920FB60F9211241F932F93FB
:100800003F934F935F936F937F938F939F93AF9398
:10081000BF93CF93DF93EF93FF93F89484B195B197
:10082000E0916800F0E0EE0FFF1FE659FF4F918363
:100830008083379884B195B190938B0480938A0418
:100840000E94600310916800812F90E0880F991F2B
:10085000FC01E659FF4F20813181EC01CC0FDD1FF7
:1008600082E02130380794F066277727621B730BEC
:10087000737071836083882777FD8095982F0E941D
:10088000440723E333E343E550EC0BC0B901882769
:1008900077FD8095982F0E94440723E333E343E5D7
:1008A00050E40E943F0820E030E040E05BE30E941B
:1008B0003F08C45DDD4F20E030E040E250E40E949C
:1008C0004106688379838A839B831A3420F41F5FEF
:1008D0001093680002C0109268000E940703789489
:1008E000FF91EF91DF91CF91BF91AF919F918F9148
:1008F0007F916F915F914F913F912F911F910F9039
:100900000FBE0F901F9018958F929F92AF92BF923B
:10091000CF92DF92EF92FF920F931F935B016C01D6
:1009200020E030E040E050E00E94A506882344F437
:1009300080E690E00E943B01D7FAD094D7F8D0949B
:10094000C601B5010E94F4070E941107862E662396
:10095000D9F0772767FD7095872F972F0E9444075E
:100960009B01AC0160E070E080E291E40E94A2088B
:100970009B01AC01C601B5010E94A9067B018C0157
:100980000E941607962E07C0C601B5010E941607E1
:10099000962E860175019920E1F48A94682D7727B7
:1009A00067FD7095872F972F0E9444079B01AC012C
:1009B00060E070E080E291E40E94A2089B01AC013B
:1009C000C601B5010E94A9067B018C010E94160791
:1009D000962E892D0E94600182E690E00E943B01E4
:1009E000DD24692D70E0882777FD8095982F0E947F
:1009F00044079B01AC01C801B7010E94400620E0FA
:100A000030E040E251E40E943F087B018C010E94EB
:100A10001607DC01CB01982E0E946001D39485E07B
:100A2000D816F9F684E690E00E943B01882D0E94DA
:100A300090011F910F91FF90EF90DF90CF90BF90AA
:100A4000AF909F908F9008958FEF87BB0E94E90031
:100A500083E183BF89B7826089BF82E58CBF0E9432
:100A6000070378940E943401E0916800F0E0EE0FF3
:100A7000FF1FEE0FFF1FE45DFD4F608171818281DA
:100A800093810E94840481E061E00E942101E09151
:100A90006900F0E0EE0FFF1FEE0FFF1FE85AFC4F5A
:100AA00060817181828193810E94840482E390E05D
:100AB0000E94A000D7CFAF92BF92CF92DF92EF9269
:100AC000FF920F931F93DF93CF93CDB7DEB760975D
:100AD0000FB6F894DEBF0FBECDBF0FE1E02EF12CB4
:100AE000EC0EFD1E8D8D9E8D9C01690110E1A12EE5
:100AF000B12CAC0EBD1EABC0853251F08A3009F46A
:100B0000A3C0893009F4A0C0883009F49DC09AC000
:100B10000894C11CD11CD6018C918936F9F08A3613
:100B200074F4833621F1843624F4883509F08AC0C0
:100B300038C0843699F0863609F084C020C08337E7
:100B400049F1843724F48F3609F07CC044C08537DE
:100B500009F457C0883709F075C023C087010E5FBC
:100B60001F4FF701808191810E94530269C0870164
:100B70000E5F1F4FD7018C910E94050161C0870154
:100B80000C5F1F4FF70160817181828193810E9408
:100B9000840456C087010E5F1F4FD7018D919C9131
:100BA0004DC0F501108287010E5F1F4FD7016D9177
:100BB0007C919B012F703070822F805D8A3308F00A
:100BC000895D8293B4E076956795BA95E1F76115F2
:100BD000710579F732C0F501108287010E5F1F4F52
:100BE000D7016D917C91CB0187709070805D82936D
:100BF000A3E076956795AA95E1F76115710599F7D8
:100C00001CC0F501108287010E5F1F4FD7012D9187
:100C10003C91C9016AE070E00E94DB09982F905D69
:100C20009A3308F0995D9293C9016AE070E00E94DE
:100C3000DB099B016115710561F7CF010E943B0142
:100C4000780102C00E9405010894C11CD11CF60164
:100C50008081882309F050CF60960FB6F894DEBFEC
:100C60000FBECDBFCF91DF911F910F91FF90EF90FD
:100C7000DF90CF90BF90AF900895F8940C94020A43
:100C80005058BB27AA270ED075C166D130F06BD162
:100C900020F031F49F3F11F41EF45BC10EF4E09597
:100CA000E7FB51C1E92F77D180F3BA1762077307C9
:100CB0008407950718F071F49EF58FC10EF4E09546
:100CC0000B2EBA2FA02D0B01B90190010C01CA0106
:100CD000A0011124FF27591B99F0593F50F4503EB1
:100CE00068F11A16F040A22F232F342F4427585FA3
:100CF000F3CF469537952795A795F0405395C9F7BB
:100D00007EF41F16BA0B620B730B840BBAF0915072
:100D1000A1F0FF0FBB1F661F771F881FC2F70EC011
:100D2000BA0F621F731F841F48F4879577956795E4
:100D3000B795F7959E3F08F0B3CF9395880F08F0CD
:100D40009927EE0F979587950895D9D008F481E0FB
:100D500008950CD00FC107D140F0FED030F021F43F
:100D60005F3F19F0F0C0511139C1F3C014D198F3AD
:100D70009923C9F35523B1F3951B550BBB27AA271C
:100D800062177307840738F09F5F5F4F220F331F8E
:100D9000441FAA1FA9F333D00E2E3AF0E0E830D05A
:100DA00091505040E695001CCAF729D0FE2F27D05D
:100DB000660F771F881FBB1F261737074807AB072B
:100DC000B0E809F0BB0B802DBF01FF2793585F4FA0
:100DD0002AF09E3F510568F0B6C000C15F3FECF3BA
:100DE000983EDCF3869577956795B795F7959F5F65
:100DF000C9F7880F911D9695879597F90895E1E0B9
:100E0000660F771F881FBB1F621773078407BA0717
:100E100020F0621B730B840BBA0BEE1F88F7E09572
:100E2000089504D06894B111D9C00895BCD088F059
:100E30009F5790F0B92F9927B751A0F0D1F0660FC6
:100E4000771F881F991F1AF0BA95C9F712C0B130E1
:100E500081F0C3D0B1E00895C0C0672F782F8827F4
:100E6000B85F39F0B93FCCF3869577956795B39520
:100E7000D9F73EF490958095709561957F4F8F4F8F
:100E80009F4F0895E89409C097FB3EF49095809594
:100E9000709561957F4F8F4F9F4F9923A9F0F92F40
:100EA00096E9BB279395F695879577956795B795BE
:100EB000F111F8CFFAF4BB0F11F460FF1BC06F5FA4
:100EC0007F4F8F4F9F4F16C0882311F096E911C0B6
:100ED000772321F09EE8872F762F05C0662371F0D7
:100EE00096E8862F70E060E02AF09A95660F771FEB
:100EF000881FDAF7880F9695879597F90895990FC7
:100F00000008550FAA0BE0E8FEEF16161706E807D3
:100F1000F907C0F012161306E407F50798F0621BF4
:100F2000730B840B950B39F40A2661F0232B242BC9
:100F3000252B21F408950A2609F4A140A6958FEFE8
:100F4000811D811D089597F99F6780E870E060E03A
:100F500008959FEF80EC089500240A941616170652
:100F600018060906089500240A941216130614069A
:100F700005060895092E0394000C11F4882352F0FD
:100F8000BB0F40F4BF2B11F460FF04C06F5F7F4FB5
:100F90008F4F9F4F089557FD9058440F551F59F09C
:100FA0005F3F71F04795880F97FB991F61F09F3F56
:100FB00079F087950895121613061406551FF2CF7F
:100FC0004695F1DF08C0161617061806991FF1CFCF
:100FD00086957105610508940895E894BB276627F6
:100FE0007727CB0197F908950AD029ED3BE54EED1F
:100FF0005EE345C00EF023C1ACCF6894A4CFD3DF2D
:10100000C8F39923D1F3C6F3DF93CF931F930F93C4
:10101000FF92C92FDD2788232AF02197660F771FBB
:10102000881FDAF720E030E040E85FEB9FE3883983
:1010300020F0803E30F021968F7723DEE4E5F0E06B
:1010400003C01FDEE1E8F0E008D18B01BE01EC0136
:10105000FB2E6F5771097595771F880B990B14DF5D
:1010600028E132E741E35FE316D0AF2D9801AE01EE
:10107000FF900F911F91CF91DF9114DE7BCF0BD0AA
:1010800079CF6ADF28F06FDF18F0952309F05BCF86
:1010900060CF1124A3CF7FDFA0F3959FD1F3950FED
:1010A00050E0551F629FF001729FBB27F00DB11DEC
:1010B000639FAA27F00DB11DAA1F649F6627B00D7C
:1010C000A11D661F829F2227B00DA11D621F739F65
:1010D000B00DA11D621F839FA00D611D221F749F73
:1010E0003327A00D611D231F849F600D211D822FBA
:1010F000762F6A2F11249F5750408AF0E1F0882301
:101100004AF0EE0FFF1FBB1F661F771F881F91500D
:101110005040A9F79E3F510570F015CF5FCF5F3F5C
:10112000ECF3983EDCF3869577956795B795F79540
:10113000E7959F5FC1F7FE2B880F911D96958795C8
:1011400097F90895FA01EE0FFF1F3096210531053A
:1011500099F16115710561F48038BFE39B0749F18E
:1011600068949038810561F08038BFEF9B0741F0AB
:10117000992342F5FF3FE1053105210511F1E8947E
:101180000894E795D901AA2329F4AB2FBE2FF85F65
:10119000D0F310C0FF5F70F4A695E0F7F73950F078
:1011A00019F0FF3A38F49F779F930CD00F9007FC0B
:1011B000905808953EF0CDCE60E070E080E89FE367
:1011C00008954FE79F775F934F933F932F9317DFD8
:1011D0002F913F914F915F9152DF05C019F40EF0AE
:1011E000B2CEFBCEB6CEDFDEC8F39638C0F707F836
:1011F0000F92E8942BE33AEA48EB5FE74EDF0F9259
:101200000F920F924DB75EB70F9289D0EEEAF0E0E1
:1012100024D04F915F91EF91FF91E595EE1FFF1F55
:1012200049F0FE57E0684427EE0F441FFA95E1F7B6
:101230004195550B40D00F9007FE34C008959F3F55
:1012400031F0915020F4879577956795B795880F81
:10125000911D9695879597F90895DF93CF931F93E6
:101260000F93FF92EF92DF927B018C01689405C08F
:10127000DA2EEF0110DFFE01E894A591259135915A
:1012800045915591AEF3EF010DDDFE019701A801E7
:10129000DA9479F7DF90EF90FF900F911F91CF9143
:1012A000DF9108959B01AC0160E070E080E89FE36E
:1012B00050CD49CEC4CF77DEE8F39923D9F3940F0C
:1012C000511DBBF39150504094F059F0882332F0F7
:1012D000660F771F881F91505040C1F79E3F510500
:1012E00044F7880F911D9695879597F908955F3F6C
:1012F000ACF0983E9CF0BB27869577956795B7959F
:1013000008F4B1609395C1F7BB0F58F711F460FF73
:10131000E8CF6F5F7F4F8F4F9F4FE3CF5FCEFA01D4
:10132000DC01AA0FBB1F9B01AC01BF5728F4222789
:101330003327442750781FC0B75188F4AB2F0024BF
:10134000469537952795011CA395D2F3002069F0A7
:10135000220F331F441FB395DAF30DD091CC6130C7
:101360007105A0E88A07B94630F49B01AC016627F5
:10137000772788279078309621F020833183428325
:1013800053830895991B79E004C0991F961708F0BC
:10139000961B881F7A95C9F78095089587FB082EBC
:1013A000062687FD819567FD6195ECDF0EF491952A
:1013B00007FC81950895AA1BBB1B51E107C0AA1F1A
:1013C000BB1FA617B70710F0A61BB70B881F991FE6
:1013D0005A95A9F780959095BC01CD01089597FB8A
:1013E000092E07260AD077FD04D0E5DF06D00020BD
:1013F0001AF4709561957F4F0895F6F79095819551
:081400009F4F0895F894FFCFFF
:081408002D002E00450001003B
:00000001FF
