:100000000C946B000C9488000C9488000C9488006D
:100010000C9488000C9488000C9488000C94880040
:100020000C9488000C9488000C9488000C94880030
:100030000C9488000C94EE020C9488000C948800B8
:100040000C9488000C9488000C9488000C94880010
:100050000C94880008000000BE922449123EABAA0E
:10006000AA2ABECDCCCC4C3E00000080BEABAAAAD2
:10007000AA3E00000000BF000000803F000000001A
:1000800000084178D3BB4387D1133D190E3CC3BD53
:100090004282AD2B3E68EC8276BED98FE1A93E4C00
:1000A00080EFFFBE01C4FF7F3F0000000000076338
:1000B0004236B79BD8A71A39685618AEBAAB558CDA
:1000C0001D3CB7CC5763BD6DEDFD753EF617723123
:1000D000BF000000803F11241FBECFE5D8E0DEBF87
:1000E000CDBF10E0A0E6B0E0E0EAF2E102C005908A
:1000F0000D92A038B107D9F710E0A0E8B0E001C038
:100100001D92A439B107E1F70E941F030C948905E1
:100110000C9400009695879596958795A0E0B0E0A1
:10012000BC01CD010E948E0620E030E040E051E4A9
:100130000E948B070E946206CB010197F1F7089598
:10014000DF93CF9300D0CDB7DEB707C088EE93E042
:100150000E948A0089819A8101979A838983898183
:100160009A81892B99F70F900F90CF91DF91089585
:10017000A79AA69AA59AA49AAA98A998A898A29A82
:10018000A19AA09A08951F93182FAA9882E090E050
:100190000E94A000A89A85B3912F907F8F70982B12
:1001A00095BBA89882E090E00E94A000A89A85B331
:1001B0001295107F8F70812B85BBA89882E090E00C
:1001C0000E94A000AA9A82E090E00E94A0001F91E5
:1001D000089584E690E00E94A0000E94B80083E3A6
:1001E0000E94C30082E30E94C30088E20E94C30011
:1001F0008CE00E94C30086E00E94C30081E00E9460
:10020000C30082E00E94C30008951F93182FA89A8C
:1002100085B3912F907F8F70982B95BBA89882E023
:1002200090E00E94A000A89A85B31295107F8F706D
:10023000812B85BBA89882E090E00E94A0001F91CE
:100240000895623031F0633031F0613029F4805C20
:1002500003C08C5E01C08C5A80680E94C300089560
:1002600081E00E94C300089582E00E94C3000895C7
:100270000E9405010895CF93DF93EC0103C00E9413
:100280000501219688818823D1F7DF91CF910895C8
:100290001F93282F982F92959F70892F805D8A3306
:1002A00008F0895F922F9F70192F105D1A3308F0A4
:1002B000195F0E940501812F0E9405011F91089579
:1002C000FF920F931F93F82E64E60E940E09182FD9
:1002D000882311F421E004C0805D0E94050120E024
:1002E0008CE99FEF189F002D11240F0D802F6AE0DD
:1002F0000E940E09182F882311F4222321F4812F44
:10030000805D0E940501005D86EF9FEF189F802DA4
:100310001124800F0E9405011F910F91FF900895F5
:100320000F931F93182F87FF10C080E690E00E9464
:100330003B01812F6CE90E941A09282F8CE92802C1
:10034000C0011124082F011B0AC064E60E941A098B
:10035000282F8CE92802C0011124012F080F213019
:1003600011F021E004C081E30E94050120E0802F0C
:100370006AE00E941A09182F181614F0222321F49B
:10038000812F805D0E940501005D86EF1802C0018B
:100390001124800F0E9405011F910F9108950F9362
:1003A0001F93CF93DF938C0160E177E20E942709CE
:1003B000EB016115710511F421E006C09B01205D80
:1003C000822F0E94050120E080E197E2AC01C49FEA
:1003D000C001C59F900DD49F900D1124081B190BCF
:1003E000C80168EE73E00E942709EB0161157105F1
:1003F00021F4222311F021E006C09E01205D822F0E
:100400000E94050120E088EE93E0AC01C49FC0018A
:10041000C59F900DD49F900D1124081B190BC80186
:1004200064E670E00E942709EB016115710521F473
:10043000222311F021E006C09E01205D822F0E9440
:10044000050120E084E690E0AC01C49FC001C59F97
:10045000900DD49F900D1124081B190BC8016AE060
:1004600070E00E942709EB016115710511F4222348
:1004700029F49E01205D822F0E940501CE0143E0F8
:10048000880F991F4A95E1F7CC0FDD1F8C0F9D1F38
:10049000081B190B802F805D0E940501DF91CF9111
:1004A0001F910F910895EF92FF920F931F93CF9397
:1004B000DF93EC0197FF16C080E690E00E943B01BD
:1004C000CE0160EF78ED0E943B099B0180EF98ED33
:1004D000689F8001699F100D789F100D11240C1BDF
:1004E0001D0B10C060E177E20E943B099B0180EF89
:1004F00098ED689F8001699F100D789F100D112461
:100500000C0F1D1F2115310511F421E005C0822FAC
:10051000805D0E94050120E0C80168EE73E00E9442
:100520003B09EB011616170624F0222311F021E0F7
:1005300006C09E01205D822F0E94050120E088E117
:100540009CEFC89F7001C99FF00CD89FF00C11243C
:10055000E00EF11EC70164E670E00E943B09EB016A
:100560001616170624F0222311F021E006C09E0182
:10057000205D822F0E94050120E08CE99FEFC89F3B
:100580008001C99F100DD89F100D11240E0D1F1D45
:10059000C8016AE070E00E943B09EB0116161706DD
:1005A00014F0222329F49E01205D822F0E94050170
:1005B00086EF9FEF9C01C29FC001C39F900DD29F09
:1005C000900D1124800F911F805D0E940501DF9125
:1005D000CF911F910F91FF90EF9008951F920F926E
:1005E0000FB60F9211248F939F93EF93FF93F8947C
:1005F0008CB180938900EAE8F0E05F9BFECF8CB17C
:10060000819380E0E239F807C1F781E090E09093B0
:100610009300809392007894FF91EF919F918F9136
:100620000F900FBE0F901F90189590BD89B988E16B
:100630008AB986E880BD8AB1806C8AB908953F92F4
:100640004F925F926F927F928F929F92AF92BF92E2
:10065000CF92DF92EF92FF920F931F93DF93CF938E
:10066000CDB7DEB729970FB6F894DEBF0FBECDBF6A
:100670008FEF87BB0E94E9000E9430010E94340185
:1006800083E390E00E941503789411E0612E712CB1
:10069000B0E53B2EA1E3EA2EF3E08F2E912C8C0ED9
:1006A0009D1EE0E3FE2E5E010894A11CB11C7AE0C1
:1006B000C72ED12CCC0EDD1E62E5462E54E4552EFD
:1006C000709293006092920080918900803509F4C5
:1006D00051C08235F9F0843409F089C080918A00D4
:1006E000813309F084C080918B00813509F07FC08F
:1006F00082E690E00E943B015D9BFECF5CB85D9B73
:10070000FECFECB880E35D9BFECF8CB98F5F873363
:10071000D1F76DC00E9430010E94340180918A009F
:10072000813309F064C087E690E00E943B0180912C
:100730008B00813599F45D9BFECF4CB85D9BFECF5D
:10074000ECB880917D005D9BFECF8CB980E05D9B15
:10075000FECFFCB88F5F8630D1F749C080937D0013
:100760000E94050180917D0087BB84EF91E00E948B
:10077000A0003DC080918A00813571F480918B008A
:100780008133A9F5F50180815D9BFECF8CB931964F
:10079000EC15FD05C1F72BC082E790E00E943B01FC
:1007A0004AE850E0A4E8B0E09D01FA018191AF0170
:1007B000F90181939F01F0E04F385F07B1F739826B
:1007C000EA82F4018D91819380E0A938B807D1F7CE
:1007D000F886F9860E9430010E9434018501F801F3
:1007E00081918F010E9405010C151D05C1F7E9E8F3
:1007F000F0E0119280E0E239F807D9F761CF5D9B14
:10080000FECF8CB908955F9BFECF8CB108958F9277
:100810009F92AF92BF92CF92DF92EF92FF920F938F
:100820001F935B016C0120E030E040E050E00E944B
:10083000F105882344F480E690E00E943B01D7FA5A
:10084000D094D7F8D094C601B5010E9440070E9409
:100850005D06862E6623D9F0772767FD7095872F72
:10086000972F0E9490069B01AC0160E070E080E24F
:1008700091E40E94EE079B01AC01C601B5010E9404
:10088000F5057B018C010E946206962E07C0C60109
:10089000B5010E946206962E860175019920E1F449
:1008A0008A94682D772767FD7095872F972F0E9470
:1008B00090069B01AC0160E070E080E291E40E9450
:1008C000EE079B01AC01C601B5010E94F5057B0155
:1008D0008C010E946206962E892D0E94600189E794
:1008E00090E00E943B01DD24692D70E0882777FDB0
:1008F0008095982F0E9490069B01AC01C801B7011A
:100900000E948C0520E030E040E251E40E948B0719
:100910007B018C010E946206DC01CB01982E0E94B3
:100920006001D39485E0D816F9F68BE790E00E9439
:100930003B01882D0E9490011F910F91FF90EF9035
:10094000DF90CF90BF90AF909F908F900895AF921F
:10095000BF92CF92DF92EF92FF920F931F93DF939C
:10096000CF93CDB7DEB760970FB6F894DEBF0FBE5A
:10097000CDBF3FE1E32EF12CEC0EFD1E8D8D9E8D43
:100980009C01690120E1A22EB12CAC0EBD1EABC0B2
:10099000853251F08A3009F4A3C0893009F4A0C02F
:1009A000883009F49DC09AC00894C11CD11CD6019E
:1009B0008C918936F9F08A3674F4833621F18436C5
:1009C00024F4883509F08AC038C0843699F0863618
:1009D00009F084C020C0833749F1843724F48F366E
:1009E00009F07CC044C0853709F457C0883709F046
:1009F00075C023C087010E5F1F4FF7018081918171
:100A00000E94530269C087010E5F1F4FD7018C916E
:100A10000E94050161C087010C5F1F4FF7016081D3
:100A20007181828193810E94070456C087010E5F05
:100A30001F4FD7018D919C914DC0F5011082870108
:100A40000E5F1F4FD7016D917C919B012F7030700D
:100A5000822F805D8A3308F0895D829394E07695D9
:100A600067959A95E1F76115710579F732C0F5013F
:100A7000108287010E5F1F4FD7016D917C91CB01D2
:100A800087709070805D829383E0769567958A95F4
:100A9000E1F76115710599F71CC0F5011082870116
:100AA0000E5F1F4FD7012D913C91C9016AE070E0A4
:100AB0000E942709982F905D9A3308F0995D9293D0
:100AC000C9016AE070E00E9427099B016115710568
:100AD00061F7CF010E943B01780102C00E9405012D
:100AE0000894C11CD11CF6018081882309F050CFE5
:100AF00060960FB6F894DEBF0FBECDBFCF91DF91E9
:100B00001F910F91FF90EF90DF90CF90BF90AF902B
:100B10000895F8940C944E095058BB27AA270ED07C
:100B200075C166D130F06BD120F031F49F3F11F4E4
:100B30001EF45BC10EF4E095E7FB51C1E92F77D1BC
:100B400080F3BA17620773078407950718F071F4EA
:100B50009EF58FC10EF4E0950B2EBA2FA02D0B0140
:100B6000B90190010C01CA01A0011124FF27591BF2
:100B700099F0593F50F4503E68F11A16F040A22FF8
:100B8000232F342F4427585FF3CF46953795279569
:100B9000A795F0405395C9F77EF41F16BA0B620B68
:100BA000730B840BBAF09150A1F0FF0FBB1F661FAF
:100BB000771F881FC2F70EC0BA0F621F731F841FF2
:100BC00048F4879577956795B795F7959E3F08F018
:100BD000B3CF9395880F08F09927EE0F97958795D7
:100BE0000895D9D008F481E008950CD00FC107D141
:100BF00040F0FED030F021F45F3F19F0F0C0511109
:100C000039C1F3C014D198F39923C9F35523B1F333
:100C1000951B550BBB27AA2762177307840738F06B
:100C20009F5F5F4F220F331F441FAA1FA9F333D0CA
:100C30000E2E3AF0E0E830D091505040E695001C7E
:100C4000CAF729D0FE2F27D0660F771F881FBB1F3A
:100C5000261737074807AB07B0E809F0BB0B802D14
:100C6000BF01FF2793585F4F2AF09E3F510568F060
:100C7000B6C000C15F3FECF3983EDCF386957795F4
:100C80006795B795F7959F5FC9F7880F911D969562
:100C9000879597F90895E1E0660F771F881FBB1FBE
:100CA000621773078407BA0720F0621B730B840B6B
:100CB000BA0BEE1F88F7E095089504D06894B1113F
:100CC000D9C00895BCD088F09F5790F0B92F9927CC
:100CD000B751A0F0D1F0660F771F881F991F1AF047
:100CE000BA95C9F712C0B13081F0C3D0B1E0089510
:100CF000C0C0672F782F8827B85F39F0B93FCCF391
:100D0000869577956795B395D9F73EF4909580953C
:100D1000709561957F4F8F4F9F4F0895E89409C05C
:100D200097FB3EF490958095709561957F4F8F4F1E
:100D30009F4F9923A9F0F92F96E9BB279395F69534
:100D4000879577956795B795F111F8CFFAF4BB0FB2
:100D500011F460FF1BC06F5F7F4F8F4F9F4F16C016
:100D6000882311F096E911C0772321F09EE8872FA0
:100D7000762F05C0662371F096E8862F70E060E05C
:100D80002AF09A95660F771F881FDAF7880F9695D5
:100D9000879597F90895990F0008550FAA0BE0E879
:100DA000FEEF16161706E807F907C0F0121613062D
:100DB000E407F50798F0621B730B840B950B39F46D
:100DC0000A2661F0232B242B252B21F408950A26D3
:100DD00009F4A140A6958FEF811D811D089597F913
:100DE0009F6780E870E060E008959FEF80EC0895D1
:100DF00000240A94161617061806090608950024FA
:100E00000A9412161306140605060895092E039473
:100E1000000C11F4882352F0BB0F40F4BF2B11F4E7
:100E200060FF04C06F5F7F4F8F4F9F4F089557FD46
:100E30009058440F551F59F05F3F71F04795880F48
:100E400097FB991F61F09F3F79F0879508951216DF
:100E500013061406551FF2CF4695F1DF08C016168B
:100E600017061806991FF1CF86957105610508943C
:100E70000895E894BB2766277727CB0197F9089553
:100E80000AD029ED3BE54EED5EE345C00EF023C1EF
:100E9000ACCF6894A4CFD3DFC8F39923D1F3C6F3C2
:100EA000DF93CF931F930F93FF92C92FDD278823E2
:100EB0002AF02197660F771F881FDAF720E030E0CD
:100EC00040E85FEB9FE3883920F0803E30F02196C8
:100ED0008F7723DEE4E5F0E003C01FDEE1E8F0E019
:100EE00008D18B01BE01EC01FB2E6F57710975957E
:100EF000771F880B990B14DF28E132E741E35FE3AA
:100F000016D0AF2D9801AE01FF900F911F91CF9198
:100F1000DF9114DE7BCF0BD079CF6ADF28F06FDF53
:100F200018F0952309F05BCF60CF1124A3CF7FDFAA
:100F3000A0F3959FD1F3950F50E0551F629FF001EC
:100F4000729FBB27F00DB11D639FAA27F00DB11D45
:100F5000AA1F649F6627B00DA11D661F829F2227CE
:100F6000B00DA11D621F739FB00DA11D621F839F55
:100F7000A00D611D221F749F3327A00D611D231F2B
:100F8000849F600D211D822F762F6A2F11249F5779
:100F900050408AF0E1F088234AF0EE0FFF1FBB1F9C
:100FA000661F771F881F91505040A9F79E3F51053B
:100FB00070F015CF5FCF5F3FECF3983EDCF3869582
:100FC00077956795B795F795E7959F5FC1F7FE2BE6
:100FD000880F911D9695879597F90895FA01EE0F60
:100FE000FF1F30962105310599F16115710561F4F6
:100FF0008038BFE39B0749F168949038810561F020
:101000008038BFEF9B0741F0992342F5FF3FE10590
:101010003105210511F1E8940894E795D901AA2337
:1010200029F4AB2FBE2FF85FD0F310C0FF5F70F430
:10103000A695E0F7F73950F019F0FF3A38F49F77AA
:101040009F930CD00F9007FC905808953EF0CDCEA2
:1010500060E070E080E89FE308954FE79F775F933B
:101060004F933F932F9317DF2F913F914F915F91B4
:1010700052DF05C019F40EF0B2CEFBCEB6CEDFDEE5
:10108000C8F39638C0F707F80F92E8942BE33AEAD2
:1010900048EB5FE74EDF0F920F920F924DB75EB7AE
:1010A0000F9289D0EEEAF0E024D04F915F91EF915A
:1010B000FF91E595EE1FFF1F49F0FE57E0684427BA
:1010C000EE0F441FFA95E1F74195550B40D00F9074
:1010D00007FE34C008959F3F31F0915020F487956A
:1010E00077956795B795880F911D9695879597F990
:1010F0000895DF93CF931F930F93FF92EF92DF92A8
:101100007B018C01689405C0DA2EEF0110DFFE012F
:10111000E894A5912591359145915591AEF3EF0154
:101120000DDDFE019701A801DA9479F7DF90EF90C9
:10113000FF900F911F91CF91DF9108959B01AC011A
:1011400060E070E080E89FE350CD49CEC4CF77DE09
:10115000E8F39923D9F3940F511DBBF391505040FC
:1011600094F059F0882332F0660F771F881F915052
:101170005040C1F79E3F510544F7880F911D969549
:10118000879597F908955F3FACF0983E9CF0BB2798
:10119000869577956795B79508F4B1609395C1F7F3
:1011A000BB0F58F711F460FFE8CF6F5F7F4F8F4F91
:1011B0009F4FE3CF5FCEFA01DC01AA0FBB1F9B015B
:1011C000AC01BF5728F422273327442750781FC08B
:1011D000B75188F4AB2F0024469537952795011C0D
:1011E000A395D2F3002069F0220F331F441FB3955B
:1011F000DAF30DD091CC61307105A0E88A07B946C9
:1012000030F49B01AC0166277727882790783096C9
:1012100021F020833183428353830895991B79E021
:1012200004C0991F961708F0961B881F7A95C9F776
:101230008095089587FB082E062687FD819567FD1A
:101240006195ECDF0EF4919507FC81950895AA1B3A
:10125000BB1B51E107C0AA1FBB1FA617B70710F0A1
:10126000A61BB70B881F991F5A95A9F780959095D3
:10127000BC01CD01089597FB092E07260AD077FD02
:1012800004D0E5DF06D000201AF4709561957F4FF9
:101290000895F6F7909581959F4F0895F894FFCFA4
:1012A0002D00446174610072656C61792072656122
:1012B0006400707269636520002E00450030F401FF
:00000001FF
