:100000000C946B000C9488000C9488000C9488006D
:100010000C9488000C9488000C9488000C94880040
:100020000C9488000C9488000C94DD090C948800D2
:100030000C9488000C9488000C9488000C94880020
:100040000C9400080C9488000C9488000C94880090
:100050000C94880008000000BE922449123EABAA0E
:10006000AA2ABECDCCCC4C3E00000080BEABAAAAD2
:10007000AA3E00000000BF000000803F000000001A
:1000800000084178D3BB4387D1133D190E3CC3BD53
:100090004282AD2B3E68EC8276BED98FE1A93E4C00
:1000A00080EFFFBE01C4FF7F3F0000000000076338
:1000B0004236B79BD8A71A39685618AEBAAB558CDA
:1000C0001D3CB7CC5763BD6DEDFD753EF617723123
:1000D000BF000000803F11241FBECFE5D8E0DEBF87
:1000E000CDBF10E0A0E6B0E0EAE0F3E202C0059088
:1000F0000D92AC36B107D9F717E0ACE6B0E001C01D
:100100001D92A438B107E1F70E94080A0C94BE0DB5
:100110000C940000DF93CF9300D000D0CDB7DEB7B2
:100120009C838B838B819C819A83898309C088EE11
:1001300093E00E94AB0089819A8101979A83898319
:1001400089819A81009799F70F900F900F900F90E7
:10015000CF91DF910895DF93CF9300D000D0CDB73A
:10016000DEB79C838B838B819C8196958795969532
:100170008795CC01A0E0B0E0BC01CD010E94C30E88
:10018000DC01CB01BC01CD0120E030E040E051E4D6
:100190000E94C00FDC01CB01BC01CD010E94970E73
:1001A000DC01CB019A83898389819A810197F1F7D8
:1001B0009A8389830F900F900F900F90CF91DF91CA
:1001C0000895DF93CF93CDB7DEB784E690E00E9429
:1001D0008A000E94030183E30E94500182E30E948F
:1001E000500188E20E9450018CE00E94500186E09C
:1001F0000E94500181E00E94500182E00E94500163
:10020000CF91DF910895DF93CF93CDB7DEB7A4E30D
:10021000B0E0E4E3F0E0808180688C93A4E3B0E098
:10022000E4E3F0E0808180648C93A4E3B0E0E4E355
:10023000F0E0808180628C93A4E3B0E0E4E3F0E03E
:10024000808180618C93A5E3B0E0E5E3F0E08081FC
:100250008B7F8C93A5E3B0E0E5E3F0E080818D7FB8
:100260008C93A5E3B0E0E5E3F0E080818E7F8C9392
:10027000A4E3B0E0E4E3F0E0808184608C93A4E345
:10028000B0E0E4E3F0E0808182608C93A4E3B0E02E
:10029000E4E3F0E0808181608C93CF91DF91089559
:1002A000DF93CF930F92CDB7DEB78983A5E3B0E09C
:1002B000E5E3F0E080818B7F8C9382E090E00E9408
:1002C0008A00A5E3B0E0E5E3F0E0808181608C93F3
:1002D000A5E3B0E0E5E3F0E08081982F9F7089818D
:1002E000807F892B8C93A5E3B0E0E5E3F0E080818B
:1002F0008E7F8C9382E090E00E948A00A5E3B0E0BC
:10030000E5E3F0E0808181608C93A5E3B0E0E5E374
:10031000F0E08081282F2F708981882F90E08295CE
:100320009295907F9827807F9827822B8C93A5E3C6
:10033000B0E0E5E3F0E080818E7F8C9382E090E096
:100340000E948A00A5E3B0E0E5E3F0E080818460EC
:100350008C9382E090E00E948A000F90CF91DF9111
:100360000895DF93CF930F92CDB7DEB78983A5E3CE
:10037000B0E0E5E3F0E0808181608C93A5E3B0E03C
:10038000E5E3F0E08081982F9F708981807F892B41
:100390008C93A5E3B0E0E5E3F0E080818E7F8C9361
:1003A00082E090E00E948A00A5E3B0E0E5E3F0E09F
:1003B000808181608C93A5E3B0E0E5E3F0E080818B
:1003C000282F2F708981882F90E082959295907FB9
:1003D0009827807F9827822B8C93A5E3B0E0E5E3F4
:1003E000F0E080818E7F8C9382E090E00E948A0012
:1003F0000F90CF91DF910895DF93CF9300D000D07D
:100400000F92CDB7DEB78A836B838B81282F30E0C4
:100410003D832C838C819D8181309105C1F02C819D
:100420003D81223031052CF48C819D81009761F053
:100430001AC02C813D812230310569F08C819D816B
:100440008330910561F00FC08A8189830EC08A8153
:10045000805C89830AC08A818C5E898306C08A8118
:100460008C5A898302C08A818983898180680E942D
:1004700050010F900F900F900F900F90CF91DF9140
:100480000895DF93CF93CDB7DEB781E00E9450018E
:10049000CF91DF910895DF93CF93CDB7DEB782E0A0
:1004A0000E945001CF91DF910895DF93CF930F9277
:1004B000CDB7DEB7898389810E94B1010F90CF91BA
:1004C000DF910895DF93CF9300D0CDB7DEB79A8345
:1004D00089830AC0E981FA8180810E94B101898102
:1004E0009A8101969A838983E981FA8180818823A0
:1004F00089F70F900F90CF91DF910895DF93CF93FD
:1005000000D00F92CDB7DEB78B838B81807F8A833B
:100510008A8182958F708A838A81805D8A838A81AD
:100520008A3318F08A81895F8A838B818F708983EF
:100530008981805D898389818A3318F08981895F07
:1005400089838A810E94B10189810E94B1010F9043
:100550000F900F90CF91DF910895DF93CF9300D04C
:100560000F92CDB7DEB78B8381E089838B8194E6D0
:10057000692F0E9443118A838A81882329F08A8106
:10058000805D0E94B10119828A81282F30E08CE9B8
:100590009FEFAC01249FC001259F900D349F900DCB
:1005A0001124982F8B81890F8B838B819AE0692F7F
:1005B0000E9443118A838A81882319F489818823C0
:1005C00031F48A81805D0E94B10181E089838A8152
:1005D000882F90E09C01220F331FC901880F991FBB
:1005E000880F991F820F931F909581959F4F982F89
:1005F0008B81890F8B838B81805D0E94B1010F906D
:100600000F900F90CF91DF910895DF93CF9300D09B
:100610000F92CDB7DEB78B8381E089838B818823EE
:1006200004F580E690E00E9462028B819CE9692FCC
:100630000E944F118A838A81282F332727FD309506
:100640008CE99FEFAC01249FC001259F900D349F42
:10065000900D1124982F8B81592F581B852F8B8338
:1006600019C08B8194E6692F0E944F118A838A8179
:10067000282F332727FD30958CE99FEFAC01249F6D
:10068000C001259F900D349F900D1124982F8B81D0
:10069000890F8B838A8118162CF48A81805D0E94D1
:1006A000B10119828B819AE0692F0E944F118A83D0
:1006B0008A8118161CF08981882331F48A81805D33
:1006C0000E94B10181E089838A81992787FD9095F5
:1006D0009C01220F331FC901880F991F880F991F92
:1006E000820F931F909581959F4F982F8B81890F33
:1006F0008B838B81805D0E94B1010F900F900F90D2
:10070000CF91DF910895DF93CF9300D000D00F9267
:10071000CDB7DEB79D838C8381E089838C819D81F9
:1007200020E137E2B9010E945C11CB019B838A83EF
:100730008A819B81009729F08A81805D0E94B101A6
:1007400019822A813B8180E197E2A901489F9001AB
:10075000499F300D589F300D11248C819D81821B43
:10076000930B9D838C838C819D8128EE33E0B901AE
:100770000E945C11CB019B838A838A819B810097B5
:1007800019F48981882329F48A81805D0E94B1014E
:1007900019822A813B8188EE93E0A901489F90014C
:1007A000499F300D589F300D11248C819D81821BF3
:1007B000930B9D838C838C819D8124E630E0B9016D
:1007C0000E945C11CB019B838A838A819B81009765
:1007D00019F48981882329F48A81805D0E94B101FE
:1007E00019822A813B8184E690E0A901489F90010B
:1007F000499F300D589F300D11248C819D81821BA3
:10080000930B9D838C838C819D812AE030E0B9011C
:100810000E945C11CB019B838A838A819B81009714
:1008200019F48981882331F48A81805D0E94B101A5
:1008300081E089838A819B819C01220F331FC9013A
:10084000880F991F880F991F280F391F8C819D8150
:10085000821B930B9D838C838C81805D0E94B101F0
:100860000F900F900F900F900F90CF91DF91089500
:10087000DF93CF9300D000D00F92CDB7DEB79D832A
:100880008C8381E089838C819D8199231CF580E68E
:1008900090E00E9462028C819D8120EF38EDB901C9
:1008A0000E947011CB019B838A832A813B8180EF58
:1008B00098EDA901489F9001499F300D589F300D38
:1008C00011248C819D81A901481B590BCA019D836C
:1008D0008C831CC08C819D8120E137E2B9010E948C
:1008E0007011CB019B838A832A813B8180EF98ED35
:1008F000A901489F9001499F300D589F300D112448
:100900008C819D81820F931F9D838C838A819B8123
:10091000181619062CF48A81805D0E94B101198293
:100920008C819D8128EE33E0B9010E947011CB01CA
:100930009B838A838A819B81181619061CF0898102
:10094000882329F48A81805D0E94B10119822A815D
:100950003B8188E19CEFA901489F9001499F300DA0
:10096000589F300D11248C819D81820F931F9D8390
:100970008C838C819D8124E630E0B9010E94701146
:10098000CB019B838A838A819B81181619061CF0F0
:100990008981882329F48A81805D0E94B1011982AE
:1009A0002A813B818CE99FEFA901489F9001499FD3
:1009B000300D589F300D11248C819D81820F931F23
:1009C0009D838C838C819D812AE030E0B9010E9457
:1009D0007011CB019B838A838A819B81181619062B
:1009E0001CF08981882331F48A81805D0E94B101E5
:1009F00081E089838A819B819C01220F331FC90179
:100A0000880F991F880F991F820F931F90958195CA
:100A10009F4F2C813D81820F931F9D838C838C81FE
:100A2000805D0E94B1010F900F900F900F900F907A
:100A3000CF91DF910895DF93CF93CDB7DEB72B979A
:100A40000FB6F894DEBF0FBECDBF688779878A875F
:100A50009B87688579858A859B8520E030E040E02A
:100A600050E00E94260E88236CF480E690E00E94FD
:100A7000620288859985AA85BB85B0588887998741
:100A8000AA87BB8788859985AA85BB85BC01CD01CE
:100A90000E94750FDC01CB01BC01CD010E94920EBA
:100AA000DC01CB018D838D81882309F446C08D81C3
:100AB000992787FD9095A92FB92FBC01CD010E94E0
:100AC000C50E9B01AC0160E070E080E291E40E9401
:100AD0002310DC01CB019C01AD01688579858A85F5
:100AE0009B850E942A0EDC01CB01BC01CD010E9436
:100AF000970EDC01CB018F838D81992787FD90951F
:100B0000A92FB92FBC01CD010E94C50E9B01AC01DC
:100B100060E070E080E291E40E9423109B01AC0150
:100B2000688579858A859B850E942A0EDC01CB0128
:100B300089839A83AB83BC8311C0688579858A8554
:100B40009B850E94970EDC01CB018F838885998558
:100B5000AA85BB8589839A83AB83BC838F818823D5
:100B600009F046C08D8181508D838D81992787FD45
:100B70009095A92FB92FBC01CD010E94C50E9B01F4
:100B8000AC0160E070E080E291E40E9423109B01E0
:100B9000AC01688579858A859B850E942A0EDC01D7
:100BA000CB01BC01CD010E94970EDC01CB018F83EC
:100BB0008D81992787FD9095A92FB92FBC01CD0173
:100BC0000E94C50E9B01AC0160E070E080E291E400
:100BD0000E9423109B01AC01688579858A859B85DD
:100BE0000E942A0EDC01CB0189839A83AB83BC83EC
:100BF0008F810E94AD0282E690E00E9462021E8216
:100C000032C08F81882F90E0AA2797FDA095BA2F38
:100C1000BC01CD010E94C50E9B01AC0169817A81A6
:100C20008B819C810E94C10DDC01CB01BC01CD01F7
:100C300020E030E040E251E40E94C00FDC01CB0133
:100C400089839A83AB83BC8369817A818B819C8100
:100C50000E94970EDC01CB018F838F810E94AD0231
:100C60008E818F5F8E838E81853058F284E690E08E
:100C70000E9462028D810E9405032B960FB6F894A4
:100C8000DEBF0FBECDBFCF91DF910895DF93CF932D
:100C9000CDB7DEB7A7970FB6F894DEBF0FBECDBFB6
:100CA000CE018E969D8B8C8B8CA59DA59B8B8A8B64
:100CB00098C1EA89FB8980818532C1F0EA89FB8984
:100CC00080818A3009F488C1EA89FB898081893072
:100CD00009F482C1EA89FB898081883009F47CC1EA
:100CE000EA89FB8980810E94550276C18A899B89A5
:100CF00001969B8B8A8BEA89FB898081282F332779
:100D000027FD30953FA32EA38EA19FA18936910583
:100D100009F442C02EA13FA12A363105F4F48EA178
:100D20009FA18336910509F447C02EA13FA1243627
:100D300031053CF48EA19FA18835910509F472C05C
:100D400046C12EA13FA12436310531F18EA19FA1CC
:100D50008636910509F43EC03AC12EA13FA1233742
:100D6000310509F44FC08EA19FA1843791053CF451
:100D70002EA13FA12F36310509F49BC028C18EA1B9
:100D80009FA18537910509F4DBC02EA13FA128372B
:100D9000310509F447C01BC12C893D89C901029660
:100DA0009D8B8C8BF901808191819D878C878C85AF
:100DB0009D850E94380410C12C893D89C901029685
:100DC0009D8B8C8BF901808191818F878F850E940B
:100DD000550202C12C893D89C90104969D8B8C8BDB
:100DE000F90180819181A281B38188879987AA873F
:100DF000BB8788859985AA85BB85BC01CD010E94EA
:100E00001B05EAC02C893D89C90102969D8B8C8BFC
:100E1000F90180819181998B888B888999890E94B9
:100E20006202DAC080E190E09F838E83CE01469615
:100E30004096998B888B888999890197998B888BA3
:100E4000E889F98910822C893D89C90102969D8B18
:100E50008C8BF901808191819D838C838C819D8114
:100E60002E813F81B9010E945C11805D8B838B8153
:100E70008A3318F08B81895D8B83888999890197E2
:100E8000998B888B8B81E889F98980838C819D81FE
:100E90002E813F81B9010E945C11CB019D838C831F
:100EA0008C819D810097D1F6888999890E94620280
:100EB00093C088E090E09F838E83CE014696409653
:100EC000998B888B888999890197998B888BE88978
:100ED000F98910822C893D89C90102969D8B8C8BE2
:100EE000F901808191819D838C838C819D812E81EC
:100EF0003F81B9010E945C11805D8A838A818A33B7
:100F000018F08A81895D8A83888999890197998BEC
:100F1000888B8A81E889F98980838C819D812E81E3
:100F20003F81B9010E945C11CB019D838C838C8130
:100F30009D810097D1F6888999890E9462024CC0F0
:100F40008AE090E09F838E83CE0146964096998BEF
:100F5000888B888999890197998B888BE889F98989
:100F600010822C893D89C90102969D8B8C8BF901D9
:100F7000808191819D838C838C819D812E813F8195
:100F8000B9010E945C11805D898389818A3318F0E0
:100F90008981895D8983888999890197998B888B53
:100FA0008981E889F98980838C819D812E813F81A7
:100FB000B9010E945C11CB019D838C838C819D8142
:100FC0000097D1F6888999890E94620205C0EA8952
:100FD000FB8980810E9455028A899B8901969B8B9F
:100FE0008A8BEA89FB898081882309F062CEA796E3
:100FF0000FB6F894DEBF0FBECDBFCF91DF9108953D
:101000001F920F920FB60F9211240F931F932F93DD
:101010003F934F935F936F937F938F939F93AF9380
:10102000BF93EF93FF93DF93CF93CDB7DEB7E8E3A2
:10103000F0E0108240916C0050916D00E4E2F0E02D
:10104000808191819C01CA01880F991FFC01EC5895
:10105000FF4F3183208380916C0090916D00880F49
:10106000991FFC01EC58FF4F8081918122E0813073
:1010700092070CF4C8C040916C0050916D008091B3
:101080006C0090916D00880F991FFC01EC58FF4F88
:10109000808191819C0121503040CA01880F991FA5
:1010A000FC01EC58FF4F3183208340916C0050913C
:1010B0006D0080916C0090916D00880F991FFC016C
:1010C000EC58FF4F808191819C0120953095CA0199
:1010D000880F991FFC01EC58FF4F3183208340910A
:1010E0006C0050916D0080916C0090916D00880FA4
:1010F000991FFC01EC58FF4F808191819C01337056
:10110000CA01880F991FFC01EC58FF4F31832083DF
:1011100000916C0010916D0080916C0090916D00B9
:10112000880F991FFC01EC58FF4F80819181AA27FD
:1011300097FDA095BA2FBC01CD010E94C50EDC0120
:10114000CB01BC01CD0123E333E343E550EC0E9426
:10115000C00FDC01CB01BC01CD0120E030E040E05C
:1011600054E40E942A0EDC01CB019C01AD01C801B0
:10117000880F991F880F991FFC01E650FC4F2083B0
:1011800031834283538300916C0010916D008091F4
:101190006C0090916D00880F991F880F991FFC01BA
:1011A000E650FC4F80819181A281B381BC01CD01C9
:1011B00020E030E040E250E40E94C20DDC01CB01AF
:1011C000BC01CD012CEA3DEA48ED5DE30E94C20D71
:1011D000DC01CB01BC01CD012DE13AE544E85FE340
:1011E0000E942A0EDC01CB019C01AD01C801880FD1
:1011F000991F880F991FFC01E650FC4F2083318313
:10120000428353837AC000916C0010916D008091ED
:101210006C0090916D00880F991FFC01EC58FF4FF6
:1012200080819181AA2797FDA095BA2FBC01CD019D
:101230000E94C50EDC01CB01BC01CD0123E333E3E9
:1012400043E550E40E94C00FDC01CB01BC01CD019D
:1012500020E030E040E054E40E942A0EDC01CB01A3
:101260009C01AD01C801880F991F880F991FFC01CF
:10127000E650FC4F208331834283538300916C00FE
:1012800010916D0080916C0090916D00880F991FF6
:10129000880F991FFC01E650FC4F80819181A2814B
:1012A000B381BC01CD0120E030E040E250E40E9477
:1012B000C20DDC01CB01BC01CD012CEA3DEA48EDB9
:1012C0005DE30E94C20DDC01CB01BC01CD012DE12B
:1012D0003AE544E85FE30E942A0EDC01CB019C0161
:1012E000AD01C801880F991F880F991FFC01E650B6
:1012F000FC4F208331834283538300916C00109113
:101300006D0080916C0090916D00880F991F880F7F
:10131000991FFC01E650FC4F80819181A281B3812D
:10132000BC01CD0121E73DE742E053E40E94C00F3C
:10133000DC01CB01BC01CD012AEF3DEE4BED5FE3BB
:101340000E94C20DDC01CB019C01AD01C801880FD8
:10135000991F880F991FFC01EE5AF94F20833183A2
:101360004283538380916C0090916D008B34910582
:1013700054F480916C0090916D00019690936D00F3
:1013800080936C0004C010926D0010926C007894F1
:10139000CF91DF91FF91EF91BF91AF919F918F918D
:1013A0007F916F915F914F913F912F911F910F917D
:1013B0000F900FBE0F901F9018951F920F920FB6AF
:1013C0000F9211248F93AF93BF93EF93FF93DF930B
:1013D000CF93CDB7DEB7A6E2B0E0E6E2F0E08081E1
:1013E00080648C93E2E5F0E01082A8E5B0E0E8E5E7
:1013F000F0E0808182608C93CF91DF91FF91EF913B
:10140000BF91AF918F910F900FBE0F901F901895C5
:101410000F931F93DF93CF9300D0CDB7DEB7E7E3F1
:10142000F0E08FEF80830E94E1000E94D80A0E94C2
:10143000EE0A789480E390E09A83898308C08981DA
:101440000E94A70D89819A8101969A838983898157
:101450009A81893391059CF3E4E2F0E020813181A7
:1014600000D000D0EDB7FEB7319688E690E09183CA
:101470008083338322830E9446060F900F900F9043
:101480000F9080E061E00E94FC0180916C009091DF
:101490006D00880F991F880F991FFC01E650FC4FC3
:1014A00080819181A281B381BC01CD010E941B0585
:1014B00084E060E00E94FC0184E690E00E948A00E3
:1014C0000E9441020E944B02809170009091710035
:1014D0008B3491050CF065C0409170005091710003
:1014E00080916C0090916D00880F991FFC01EC5861
:1014F000FF4F2081318180916E0090916F00880FA5
:10150000991FFC01E65FFE4F80819181B901689FC0
:101510009001699F300D789F300D1124CA01880F0A
:10152000991FFC01EA5CFD4F31832083009170001C
:10153000109171008091700090917100880F991F37
:10154000FC01EA5CFD4F80819181AA2797FDA0955F
:10155000BA2FBC01CD010E94C50EDC01CB01BC013C
:10156000CD0120E030E046E952E40E942A0EDC0181
:10157000CB019C01AD01C801880F991F880F991FED
:10158000FC01E253FD4F20833183428353838091DA
:10159000700090917100019690937100809370009B
:1015A00049CF0E94FD0C109271001092700042CF42
:1015B000DF93CF93CDB7DEB7E3E5F0E083E180833F
:1015C000A9E5B0E0E9E5F0E0808182608C93ECE58C
:1015D000F0E082E58083CF91DF910895DF93CF9390
:1015E000CDB7DEB7A7E2B0E0E7E2F0E08081886542
:1015F0008C93A6E2B0E0E6E2F0E080818E688C9306
:10160000CF91DF910895CF92DF92EF92FF920F93E7
:101610001F93DF93CF93CDB7DEB7F8948091660028
:1016200090916700883C910511F40E946B0C8091A9
:101630006600909167008A30910511F40E947D0C3C
:1016400080916600909167008130910511F40E94AD
:101650008F0CA6E2B0E0E6E2F0E0808180688C9337
:10166000A6E2B0E0E6E2F0E0808180648C93E6E2FE
:10167000F0E08081882F90E0807490700097B9F737
:10168000E8E3F0E08FEF808340916E0050916F00AF
:10169000E4E2F0E0808191819C01CA01880F991FEA
:1016A000FC01E65FFE4F3183208380916E009091B4
:1016B0006F00880F991FFC01E65FFE4F80819181CA
:1016C00022E0813092070CF498C040916E00509156
:1016D0006F0080916E0090916F00880F991FFC0140
:1016E000E65FFE4F808191819C0121503040CA010C
:1016F000880F991FFC01E65FFE4F318320834091E4
:101700006E0050916F0080916E0090916F00880F75
:10171000991FFC01E65FFE4F808191819C0120951D
:101720003095CA01880F991FFC01E65FFE4F318397
:10173000208340916E0050916F0080916E009091D7
:101740006F00880F991FFC01E65FFE4F8081918139
:101750009C013370CA01880F991FFC01E65FFE4FA0
:1017600031832083C0906E00D0906F0080916E0016
:1017700090916F00880F991FFC01E65FFE4F8081FA
:101780009181AA2797FDA095BA2FBC01CD010E9497
:10179000C50EDC01CB01BC01CD0123E333E343E5FE
:1017A00050E40E94C00FDC01CB017C018D018091CF
:1017B000660090916700982F8827990FAA2797FDB8
:1017C000A095BA2FBC01CD010E94C50E9B01AC01B2
:1017D000C801B7010E942A0EDC01CB019C01AD01BA
:1017E000C601880F991F880F991FFC01EA5DFA4F07
:1017F00020833183428353834AC0C0906E00D090CF
:101800006F0080916E0090916F00880F991FFC010E
:10181000E65FFE4F80819181AA2797FDA095BA2FA0
:10182000BC01CD010E94C50EDC01CB01BC01CD0184
:1018300023E333E343E550E40E94C00FDC01CB0116
:101840007C018D018091660090916700982F882718
:10185000990FAA2797FDA095BA2FBC01CD010E9430
:10186000C50E9B01AC01C801B7010E942A0EDC0124
:10187000CB019C01AD01C601880F991F880F991FEC
:10188000FC01EA5DFA4F20833183428353838091C8
:101890006E0090916F008B34910554F480916E002E
:1018A00090916F00019690936F0080936E0008C036
:1018B00010926F0010926E000E94470D0E94A10CC2
:1018C0000E94EE0ACF91DF911F910F91FF90EF9050
:1018D000DF90CF900895DF93CF93CDB7DEB7E7E2E7
:1018E000F0E080E48083A7E2B0E0E7E2F0E080810E
:1018F0008F608C93CF91DF910895DF93CF93CDB715
:10190000DEB7E7E2F0E080E48083A7E2B0E0E7E260
:10191000F0E080818D608C93CF91DF910895DF930B
:10192000CF93CDB7DEB7E7E2F0E080E48083A7E2B3
:10193000B0E0E7E2F0E080818B618C93CF91DF91A2
:101940000895DF93CF93CDB7DEB780916600909175
:101950006700883C910579F4809182079091830714
:1019600021E08F3D92073CF08AE090E09093670081
:10197000809366003FC0809166009091670081303F
:10198000910571F4809182079091830782339105CC
:101990003CF48AE090E090936700809366002AC050
:1019A00080916600909167008A30910571F4809172
:1019B000820790918307893191053CF488EC90E08F
:1019C000909367008093660015C0809166009091A7
:1019D00067008A30910571F48091820790918307A6
:1019E00021E0803E920734F081E090E09093670020
:1019F00080936600CF91DF910895EF92FF920F934D
:101A00001F93DF93CF9300D0CDB7DEB71A82198230
:101A100030C089819A81880F991F880F991FFC0116
:101A2000E253FD4FE080F180028113818091CC026E
:101A30009091CD02AA2797FDA095BA2FBC01CD01A8
:101A40000E94C50E9B01AC01C801B7010E94C20DE6
:101A5000DC01CB01BC01CD010E94920EDC01CB0167
:101A60009093CD028093CC0289819A8101969A83CA
:101A7000898389819A818B3491055CF20F900F9054
:101A8000CF91DF911F910F91FF90EF900895DF9319
:101A9000CF93CDB7DEB710928307109282071092D2
:101AA0007300109272002AC08091720090917300AE
:101AB000880F991FFC01E65FFE4F208131818091E4
:101AC000820790918307821793077CF480917200BC
:101AD00090917300880F991FFC01E65FFE4F808193
:101AE00091819093830780938207809172009091F7
:101AF000730001969093730080937200809172003E
:101B0000909173008B3491057CF2CF91DF91089511
:101B1000DF93CF9300D0CDB7DEB79A838983E0E41B
:101B2000F0E089819A81892F99278083E9E2F0E0AA
:101B300089818083EAE2F0E088E18083E0E4F0E0FC
:101B400086E880830F900F90CF91DF910895DF9307
:101B5000CF930F92CDB7DEB78983EBE2F0E08081BF
:101B6000882F90E0807290700097B9F3ECE2F0E07B
:101B7000898180830F90CF91DF910895F8940C9420
:101B800083115058BB27AA270ED075C166D130F0FB
:101B90006BD120F031F49F3F11F41EF45BC10EF4C1
:101BA000E095E7FB51C1E92F77D180F3BA176207BF
:101BB00073078407950718F071F49EF58FC10EF432
:101BC000E0950B2EBA2FA02D0B01B90190010C014D
:101BD000CA01A0011124FF27591B99F0593F50F465
:101BE000503E68F11A16F040A22F232F342F4427BD
:101BF000585FF3CF469537952795A795F0405395B5
:101C0000C9F77EF41F16BA0B620B730B840BBAF084
:101C10009150A1F0FF0FBB1F661F771F881FC2F7EF
:101C20000EC0BA0F621F731F841F48F48795779503
:101C30006795B795F7959E3F08F0B3CF9395880FBA
:101C400008F09927EE0F979587950895D9D008F455
:101C500081E008950CD00FC107D140F0FED030F0E4
:101C600021F45F3F19F0F0C0511139C1F3C014D114
:101C700098F39923C9F35523B1F3951B550BBB2753
:101C8000AA2762177307840738F09F5F5F4F220F00
:101C9000331F441FAA1FA9F333D00E2E3AF0E0E8F9
:101CA00030D091505040E695001CCAF729D0FE2F45
:101CB00027D0660F771F881FBB1F261737074807D7
:101CC000AB07B0E809F0BB0B802DBF01FF2793588D
:101CD0005F4F2AF09E3F510568F0B6C000C15F3FDC
:101CE000ECF3983EDCF3869577956795B795F79575
:101CF0009F5FC9F7880F911D9695879597F908956D
:101D0000E1E0660F771F881FBB1F62177307840708
:101D1000BA0720F0621B730B840BBA0BEE1F88F717
:101D2000E095089504D06894B111D9C00895BCD04D
:101D300088F09F5790F0B92F9927B751A0F0D1F0B4
:101D4000660F771F881F991F1AF0BA95C9F712C03E
:101D5000B13081F0C3D0B1E00895C0C0672F782FB3
:101D60008827B85F39F0B93FCCF3869577956795AA
:101D7000B395D9F73EF490958095709561957F4F16
:101D80008F4F9F4F0895E89409C097FB3EF49095BC
:101D90008095709561957F4F8F4F9F4F9923A9F044
:101DA000F92F96E9BB279395F695879577956795D3
:101DB000B795F111F8CFFAF4BB0F11F460FF1BC017
:101DC0006F5F7F4F8F4F9F4F16C0882311F096E9AA
:101DD00011C0772321F09EE8872F762F05C0662358
:101DE00071F096E8862F70E060E02AF09A95660F11
:101DF000771F881FDAF7880F9695879597F90895CA
:101E0000990F0008550FAA0BE0E8FEEF161617060B
:101E1000E807F907C0F012161306E407F50798F073
:101E2000621B730B840B950B39F40A2661F0232B8C
:101E3000242B252B21F408950A2609F4A140A69508
:101E40008FEF811D811D089597F99F6780E870E0ED
:101E500060E008959FEF80EC089500240A94161620
:101E6000170618060906089500240A941216130688
:101E7000140605060895092E0394000C11F4882316
:101E800052F0BB0F40F4BF2B11F460FF04C06F5F32
:101E90007F4F8F4F9F4F089557FD9058440F551F08
:101EA00059F05F3F71F04795880F97FB991F61F0DC
:101EB0009F3F79F087950895121613061406551F53
:101EC000F2CF4695F1DF08C0161617061806991FBF
:101ED000F1CF86957105610508940895E894BB27B4
:101EE00066277727CB0197F908950AD029ED3BE5BE
:101EF0004EED5EE345C00EF023C1ACCF6894A4CF95
:101F0000D3DFC8F39923D1F3C6F3DF93CF931F93A5
:101F10000F93FF92C92FDD2788232AF02197660FA0
:101F2000771F881FDAF720E030E040E85FEB9FE39F
:101F3000883920F0803E30F021968F7723DEE4E56B
:101F4000F0E003C01FDEE1E8F0E008D18B01BE0144
:101F5000EC01FB2E6F5771097595771F880B990B54
:101F600014DF28E132E741E35FE316D0AF2D98019B
:101F7000AE01FF900F911F91CF91DF9114DE7BCFC7
:101F80000BD079CF6ADF28F06FDF18F0952309F0C6
:101F90005BCF60CF1124A3CF7FDFA0F3959FD1F358
:101FA000950F50E0551F629FF001729FBB27F00D07
:101FB000B11D639FAA27F00DB11DAA1F649F66275C
:101FC000B00DA11D661F829F2227B00DA11D621FAB
:101FD000739FB00DA11D621F839FA00D611D221F65
:101FE000749F3327A00D611D231F849F600D211D49
:101FF000822F762F6A2F11249F5750408AF0E1F0EC
:1020000088234AF0EE0FFF1FBB1F661F771F881F34
:1020100091505040A9F79E3F510570F015CF5FCF0A
:102020005F3FECF3983EDCF3869577956795B7951F
:10203000F795E7959F5FC1F7FE2B880F911D969549
:10204000879597F90895FA01EE0FFF1F3096210545
:10205000310599F16115710561F48038BFE39B0783
:1020600049F168949038810561F08038BFEF9B0793
:1020700041F0992342F5FF3FE1053105210511F1BA
:10208000E8940894E795D901AA2329F4AB2FBE2F31
:10209000F85FD0F310C0FF5F70F4A695E0F7F73952
:1020A00050F019F0FF3A38F49F779F930CD00F90BF
:1020B00007FC905808953EF0CDCE60E070E080E8D7
:1020C0009FE308954FE79F775F934F933F932F933D
:1020D00017DF2F913F914F915F9152DF05C019F4A7
:1020E0000EF0B2CEFBCEB6CEDFDEC8F39638C0F728
:1020F00007F80F92E8942BE33AEA48EB5FE74EDFEC
:102100000F920F920F924DB75EB70F9289D0EEEA01
:10211000F0E024D04F915F91EF91FF91E595EE1F94
:10212000FF1F49F0FE57E0684427EE0F441FFA9561
:10213000E1F74195550B40D00F9007FE34C008954C
:102140009F3F31F0915020F4879577956795B7952B
:10215000880F911D9695879597F90895DF93CF93F2
:102160001F930F93FF92EF92DF927B018C01689493
:1021700005C0DA2EEF0110DFFE01E894A59125914C
:10218000359145915591AEF3EF010DDDFE019701BB
:10219000A801DA9479F7DF90EF90FF900F911F91EB
:1021A000CF91DF9108959B01AC0160E070E080E881
:1021B0009FE350CD49CEC4CF77DEE8F39923D9F31E
:1021C000940F511DBBF39150504094F059F0882367
:1021D00032F0660F771F881F91505040C1F79E3F25
:1021E000510544F7880F911D9695879597F90895A5
:1021F0005F3FACF0983E9CF0BB278695779567953E
:10220000B79508F4B1609395C1F7BB0F58F711F477
:1022100060FFE8CF6F5F7F4F8F4F9F4FE3CF5FCE61
:10222000FA01DC01AA0FBB1F9B01AC01BF5728F4C8
:1022300022273327442750781FC0B75188F4AB2F8B
:102240000024469537952795011CA395D2F30020CD
:1022500069F0220F331F441FB395DAF30DD091CCF0
:1022600061307105A0E88A07B94630F49B01AC01E2
:102270006627772788279078309621F0208331834E
:10228000428353830895991B79E004C0991F9617E0
:1022900008F0961B881F7A95C9F78095089587FBEB
:1022A000082E062687FD819567FD6195ECDF0EF40B
:1022B000919507FC81950895AA1BBB1B51E107C0AE
:1022C000AA1FBB1FA617B70710F0A61BB70B881FC6
:1022D000991F5A95A9F780959095BC01CD01089555
:1022E00097FB092E07260AD077FD04D0E5DF06D03C
:1022F00000201AF4709561957F4F0895F6F7909538
:0A23000081959F4F0895F894FFCFD8
:0C230A002D002E00450001002569000098
:00000001FF
